{
    "_format": "hh-sol-artifact-1",
    "contractName": "ExpiringMultiParty",
    "sourceName": "contracts/UMA/financial-templates/expiring-multiparty/ExpiringMultiParty.sol",
    "abi": [
        {
            "inputs": [
                {
                    "components": [
                        {
                            "internalType": "uint256",
                            "name": "expirationTimestamp",
                            "type": "uint256"
                        },
                        {
                            "internalType": "uint256",
                            "name": "withdrawalLiveness",
                            "type": "uint256"
                        },
                        {
                            "internalType": "address",
                            "name": "collateralAddress",
                            "type": "address"
                        },
                        {
                            "internalType": "address",
                            "name": "tokenAddress",
                            "type": "address"
                        },
                        {
                            "internalType": "address",
                            "name": "finderAddress",
                            "type": "address"
                        },
                        {
                            "internalType": "address",
                            "name": "timerAddress",
                            "type": "address"
                        },
                        {
                            "internalType": "address",
                            "name": "financialProductLibraryAddress",
                            "type": "address"
                        },
                        {
                            "internalType": "bytes32",
                            "name": "priceFeedIdentifier",
                            "type": "bytes32"
                        },
                        {
                            "internalType": "bytes",
                            "name": "ancillaryData",
                            "type": "bytes"
                        },
                        {
                            "components": [
                                {
                                    "internalType": "uint256",
                                    "name": "rawValue",
                                    "type": "uint256"
                                }
                            ],
                            "internalType": "struct FixedPoint.Unsigned",
                            "name": "minSponsorTokens",
                            "type": "tuple"
                        },
                        {
                            "components": [
                                {
                                    "internalType": "uint256",
                                    "name": "rawValue",
                                    "type": "uint256"
                                }
                            ],
                            "internalType": "struct FixedPoint.Unsigned",
                            "name": "ooReward",
                            "type": "tuple"
                        },
                        {
                            "internalType": "uint256",
                            "name": "liquidationLiveness",
                            "type": "uint256"
                        },
                        {
                            "components": [
                                {
                                    "internalType": "uint256",
                                    "name": "rawValue",
                                    "type": "uint256"
                                }
                            ],
                            "internalType": "struct FixedPoint.Unsigned",
                            "name": "collateralRequirement",
                            "type": "tuple"
                        },
                        {
                            "components": [
                                {
                                    "internalType": "uint256",
                                    "name": "rawValue",
                                    "type": "uint256"
                                }
                            ],
                            "internalType": "struct FixedPoint.Unsigned",
                            "name": "disputeBondPercentage",
                            "type": "tuple"
                        },
                        {
                            "components": [
                                {
                                    "internalType": "uint256",
                                    "name": "rawValue",
                                    "type": "uint256"
                                }
                            ],
                            "internalType": "struct FixedPoint.Unsigned",
                            "name": "sponsorDisputeRewardPercentage",
                            "type": "tuple"
                        },
                        {
                            "components": [
                                {
                                    "internalType": "uint256",
                                    "name": "rawValue",
                                    "type": "uint256"
                                }
                            ],
                            "internalType": "struct FixedPoint.Unsigned",
                            "name": "disputerDisputeRewardPercentage",
                            "type": "tuple"
                        }
                    ],
                    "internalType": "struct Liquidatable.ConstructorParams",
                    "name": "params",
                    "type": "tuple"
                }
            ],
            "stateMutability": "nonpayable",
            "type": "constructor"
        },
        {
            "anonymous": false,
            "inputs": [
                {
                    "indexed": true,
                    "internalType": "address",
                    "name": "caller",
                    "type": "address"
                }
            ],
            "name": "ContractExpired",
            "type": "event"
        },
        {
            "anonymous": false,
            "inputs": [
                {
                    "indexed": true,
                    "internalType": "address",
                    "name": "sponsor",
                    "type": "address"
                },
                {
                    "indexed": true,
                    "internalType": "uint256",
                    "name": "collateralAmount",
                    "type": "uint256"
                }
            ],
            "name": "Deposit",
            "type": "event"
        },
        {
            "anonymous": false,
            "inputs": [
                {
                    "indexed": true,
                    "internalType": "address",
                    "name": "caller",
                    "type": "address"
                },
                {
                    "indexed": true,
                    "internalType": "address",
                    "name": "sponsor",
                    "type": "address"
                },
                {
                    "indexed": true,
                    "internalType": "address",
                    "name": "liquidator",
                    "type": "address"
                },
                {
                    "indexed": false,
                    "internalType": "address",
                    "name": "disputer",
                    "type": "address"
                },
                {
                    "indexed": false,
                    "internalType": "uint256",
                    "name": "liquidationId",
                    "type": "uint256"
                },
                {
                    "indexed": false,
                    "internalType": "bool",
                    "name": "disputeSucceeded",
                    "type": "bool"
                }
            ],
            "name": "DisputeSettled",
            "type": "event"
        },
        {
            "anonymous": false,
            "inputs": [
                {
                    "indexed": true,
                    "internalType": "address",
                    "name": "caller",
                    "type": "address"
                },
                {
                    "indexed": false,
                    "internalType": "uint256",
                    "name": "originalExpirationTimestamp",
                    "type": "uint256"
                },
                {
                    "indexed": false,
                    "internalType": "uint256",
                    "name": "shutdownTimestamp",
                    "type": "uint256"
                }
            ],
            "name": "EmergencyShutdown",
            "type": "event"
        },
        {
            "anonymous": false,
            "inputs": [
                {
                    "indexed": true,
                    "internalType": "address",
                    "name": "sponsor",
                    "type": "address"
                }
            ],
            "name": "EndedSponsorPosition",
            "type": "event"
        },
        {
            "anonymous": false,
            "inputs": [
                {
                    "indexed": true,
                    "internalType": "address",
                    "name": "sponsor",
                    "type": "address"
                },
                {
                    "indexed": true,
                    "internalType": "address",
                    "name": "liquidator",
                    "type": "address"
                },
                {
                    "indexed": true,
                    "internalType": "uint256",
                    "name": "liquidationId",
                    "type": "uint256"
                },
                {
                    "indexed": false,
                    "internalType": "uint256",
                    "name": "tokensOutstanding",
                    "type": "uint256"
                },
                {
                    "indexed": false,
                    "internalType": "uint256",
                    "name": "lockedCollateral",
                    "type": "uint256"
                },
                {
                    "indexed": false,
                    "internalType": "uint256",
                    "name": "lockedCollateralAfterWithdrawals",
                    "type": "uint256"
                },
                {
                    "indexed": false,
                    "internalType": "uint256",
                    "name": "liquidationTime",
                    "type": "uint256"
                }
            ],
            "name": "LiquidationCreated",
            "type": "event"
        },
        {
            "anonymous": false,
            "inputs": [
                {
                    "indexed": true,
                    "internalType": "address",
                    "name": "sponsor",
                    "type": "address"
                },
                {
                    "indexed": true,
                    "internalType": "address",
                    "name": "liquidator",
                    "type": "address"
                },
                {
                    "indexed": true,
                    "internalType": "address",
                    "name": "disputer",
                    "type": "address"
                },
                {
                    "indexed": false,
                    "internalType": "uint256",
                    "name": "liquidationId",
                    "type": "uint256"
                },
                {
                    "indexed": false,
                    "internalType": "uint256",
                    "name": "disputeBondAmount",
                    "type": "uint256"
                }
            ],
            "name": "LiquidationDisputed",
            "type": "event"
        },
        {
            "anonymous": false,
            "inputs": [
                {
                    "indexed": true,
                    "internalType": "address",
                    "name": "caller",
                    "type": "address"
                },
                {
                    "indexed": false,
                    "internalType": "uint256",
                    "name": "paidToLiquidator",
                    "type": "uint256"
                },
                {
                    "indexed": false,
                    "internalType": "uint256",
                    "name": "paidToDisputer",
                    "type": "uint256"
                },
                {
                    "indexed": false,
                    "internalType": "uint256",
                    "name": "paidToSponsor",
                    "type": "uint256"
                },
                {
                    "indexed": true,
                    "internalType": "enum Liquidatable.Status",
                    "name": "liquidationStatus",
                    "type": "uint8"
                },
                {
                    "indexed": false,
                    "internalType": "uint256",
                    "name": "settlementPrice",
                    "type": "uint256"
                }
            ],
            "name": "LiquidationWithdrawn",
            "type": "event"
        },
        {
            "anonymous": false,
            "inputs": [
                {
                    "indexed": true,
                    "internalType": "address",
                    "name": "sponsor",
                    "type": "address"
                }
            ],
            "name": "NewSponsor",
            "type": "event"
        },
        {
            "anonymous": false,
            "inputs": [
                {
                    "indexed": true,
                    "internalType": "address",
                    "name": "sponsor",
                    "type": "address"
                },
                {
                    "indexed": true,
                    "internalType": "uint256",
                    "name": "collateralAmount",
                    "type": "uint256"
                },
                {
                    "indexed": true,
                    "internalType": "uint256",
                    "name": "tokenAmount",
                    "type": "uint256"
                }
            ],
            "name": "PositionCreated",
            "type": "event"
        },
        {
            "anonymous": false,
            "inputs": [
                {
                    "indexed": true,
                    "internalType": "address",
                    "name": "sponsor",
                    "type": "address"
                },
                {
                    "indexed": true,
                    "internalType": "uint256",
                    "name": "collateralAmount",
                    "type": "uint256"
                },
                {
                    "indexed": true,
                    "internalType": "uint256",
                    "name": "tokenAmount",
                    "type": "uint256"
                }
            ],
            "name": "Redeem",
            "type": "event"
        },
        {
            "anonymous": false,
            "inputs": [
                {
                    "indexed": true,
                    "internalType": "address",
                    "name": "sponsor",
                    "type": "address"
                },
                {
                    "indexed": true,
                    "internalType": "uint256",
                    "name": "numTokensRepaid",
                    "type": "uint256"
                },
                {
                    "indexed": true,
                    "internalType": "uint256",
                    "name": "newTokenCount",
                    "type": "uint256"
                }
            ],
            "name": "Repay",
            "type": "event"
        },
        {
            "anonymous": false,
            "inputs": [
                {
                    "indexed": true,
                    "internalType": "address",
                    "name": "oldSponsor",
                    "type": "address"
                }
            ],
            "name": "RequestTransferPosition",
            "type": "event"
        },
        {
            "anonymous": false,
            "inputs": [
                {
                    "indexed": true,
                    "internalType": "address",
                    "name": "oldSponsor",
                    "type": "address"
                }
            ],
            "name": "RequestTransferPositionCanceled",
            "type": "event"
        },
        {
            "anonymous": false,
            "inputs": [
                {
                    "indexed": true,
                    "internalType": "address",
                    "name": "oldSponsor",
                    "type": "address"
                },
                {
                    "indexed": true,
                    "internalType": "address",
                    "name": "newSponsor",
                    "type": "address"
                }
            ],
            "name": "RequestTransferPositionExecuted",
            "type": "event"
        },
        {
            "anonymous": false,
            "inputs": [
                {
                    "indexed": true,
                    "internalType": "address",
                    "name": "sponsor",
                    "type": "address"
                },
                {
                    "indexed": true,
                    "internalType": "uint256",
                    "name": "collateralAmount",
                    "type": "uint256"
                }
            ],
            "name": "RequestWithdrawal",
            "type": "event"
        },
        {
            "anonymous": false,
            "inputs": [
                {
                    "indexed": true,
                    "internalType": "address",
                    "name": "sponsor",
                    "type": "address"
                },
                {
                    "indexed": true,
                    "internalType": "uint256",
                    "name": "collateralAmount",
                    "type": "uint256"
                }
            ],
            "name": "RequestWithdrawalCanceled",
            "type": "event"
        },
        {
            "anonymous": false,
            "inputs": [
                {
                    "indexed": true,
                    "internalType": "address",
                    "name": "sponsor",
                    "type": "address"
                },
                {
                    "indexed": true,
                    "internalType": "uint256",
                    "name": "collateralAmount",
                    "type": "uint256"
                }
            ],
            "name": "RequestWithdrawalExecuted",
            "type": "event"
        },
        {
            "anonymous": false,
            "inputs": [
                {
                    "indexed": true,
                    "internalType": "address",
                    "name": "caller",
                    "type": "address"
                },
                {
                    "indexed": true,
                    "internalType": "uint256",
                    "name": "collateralReturned",
                    "type": "uint256"
                },
                {
                    "indexed": true,
                    "internalType": "uint256",
                    "name": "tokensBurned",
                    "type": "uint256"
                }
            ],
            "name": "SettleExpiredPosition",
            "type": "event"
        },
        {
            "anonymous": false,
            "inputs": [
                {
                    "indexed": true,
                    "internalType": "address",
                    "name": "sponsor",
                    "type": "address"
                },
                {
                    "indexed": true,
                    "internalType": "uint256",
                    "name": "collateralAmount",
                    "type": "uint256"
                }
            ],
            "name": "Withdrawal",
            "type": "event"
        },
        {
            "inputs": [
                {
                    "internalType": "address",
                    "name": "_collateralAddress",
                    "type": "address"
                }
            ],
            "name": "_getSyntheticDecimals",
            "outputs": [
                {
                    "internalType": "uint8",
                    "name": "decimals",
                    "type": "uint8"
                }
            ],
            "stateMutability": "view",
            "type": "function"
        },
        {
            "inputs": [],
            "name": "ancillaryData",
            "outputs": [
                {
                    "internalType": "bytes",
                    "name": "",
                    "type": "bytes"
                }
            ],
            "stateMutability": "view",
            "type": "function"
        },
        {
            "inputs": [],
            "name": "cancelTransferPosition",
            "outputs": [],
            "stateMutability": "nonpayable",
            "type": "function"
        },
        {
            "inputs": [],
            "name": "cancelWithdrawal",
            "outputs": [],
            "stateMutability": "nonpayable",
            "type": "function"
        },
        {
            "inputs": [],
            "name": "collateralCurrency",
            "outputs": [
                {
                    "internalType": "contract IERC20",
                    "name": "",
                    "type": "address"
                }
            ],
            "stateMutability": "view",
            "type": "function"
        },
        {
            "inputs": [],
            "name": "collateralRequirement",
            "outputs": [
                {
                    "internalType": "uint256",
                    "name": "rawValue",
                    "type": "uint256"
                }
            ],
            "stateMutability": "view",
            "type": "function"
        },
        {
            "inputs": [],
            "name": "contractState",
            "outputs": [
                {
                    "internalType": "enum PricelessPositionManager.ContractState",
                    "name": "",
                    "type": "uint8"
                }
            ],
            "stateMutability": "view",
            "type": "function"
        },
        {
            "inputs": [
                {
                    "components": [
                        {
                            "internalType": "uint256",
                            "name": "rawValue",
                            "type": "uint256"
                        }
                    ],
                    "internalType": "struct FixedPoint.Unsigned",
                    "name": "collateralAmount",
                    "type": "tuple"
                },
                {
                    "components": [
                        {
                            "internalType": "uint256",
                            "name": "rawValue",
                            "type": "uint256"
                        }
                    ],
                    "internalType": "struct FixedPoint.Unsigned",
                    "name": "numTokens",
                    "type": "tuple"
                }
            ],
            "name": "create",
            "outputs": [],
            "stateMutability": "nonpayable",
            "type": "function"
        },
        {
            "inputs": [
                {
                    "internalType": "address",
                    "name": "sponsor",
                    "type": "address"
                },
                {
                    "components": [
                        {
                            "internalType": "uint256",
                            "name": "rawValue",
                            "type": "uint256"
                        }
                    ],
                    "internalType": "struct FixedPoint.Unsigned",
                    "name": "minCollateralPerToken",
                    "type": "tuple"
                },
                {
                    "components": [
                        {
                            "internalType": "uint256",
                            "name": "rawValue",
                            "type": "uint256"
                        }
                    ],
                    "internalType": "struct FixedPoint.Unsigned",
                    "name": "maxCollateralPerToken",
                    "type": "tuple"
                },
                {
                    "components": [
                        {
                            "internalType": "uint256",
                            "name": "rawValue",
                            "type": "uint256"
                        }
                    ],
                    "internalType": "struct FixedPoint.Unsigned",
                    "name": "maxTokensToLiquidate",
                    "type": "tuple"
                },
                {
                    "internalType": "uint256",
                    "name": "deadline",
                    "type": "uint256"
                }
            ],
            "name": "createLiquidation",
            "outputs": [
                {
                    "internalType": "uint256",
                    "name": "liquidationId",
                    "type": "uint256"
                },
                {
                    "components": [
                        {
                            "internalType": "uint256",
                            "name": "rawValue",
                            "type": "uint256"
                        }
                    ],
                    "internalType": "struct FixedPoint.Unsigned",
                    "name": "tokensLiquidated",
                    "type": "tuple"
                }
            ],
            "stateMutability": "nonpayable",
            "type": "function"
        },
        {
            "inputs": [
                {
                    "components": [
                        {
                            "internalType": "uint256",
                            "name": "rawValue",
                            "type": "uint256"
                        }
                    ],
                    "internalType": "struct FixedPoint.Unsigned",
                    "name": "collateralAmount",
                    "type": "tuple"
                }
            ],
            "name": "deposit",
            "outputs": [],
            "stateMutability": "nonpayable",
            "type": "function"
        },
        {
            "inputs": [
                {
                    "internalType": "address",
                    "name": "sponsor",
                    "type": "address"
                },
                {
                    "components": [
                        {
                            "internalType": "uint256",
                            "name": "rawValue",
                            "type": "uint256"
                        }
                    ],
                    "internalType": "struct FixedPoint.Unsigned",
                    "name": "collateralAmount",
                    "type": "tuple"
                }
            ],
            "name": "depositTo",
            "outputs": [],
            "stateMutability": "nonpayable",
            "type": "function"
        },
        {
            "inputs": [
                {
                    "internalType": "uint256",
                    "name": "liquidationId",
                    "type": "uint256"
                },
                {
                    "internalType": "address",
                    "name": "sponsor",
                    "type": "address"
                }
            ],
            "name": "dispute",
            "outputs": [
                {
                    "components": [
                        {
                            "internalType": "uint256",
                            "name": "rawValue",
                            "type": "uint256"
                        }
                    ],
                    "internalType": "struct FixedPoint.Unsigned",
                    "name": "totalPaid",
                    "type": "tuple"
                }
            ],
            "stateMutability": "nonpayable",
            "type": "function"
        },
        {
            "inputs": [],
            "name": "disputeBondPercentage",
            "outputs": [
                {
                    "internalType": "uint256",
                    "name": "rawValue",
                    "type": "uint256"
                }
            ],
            "stateMutability": "view",
            "type": "function"
        },
        {
            "inputs": [],
            "name": "disputerDisputeRewardPercentage",
            "outputs": [
                {
                    "internalType": "uint256",
                    "name": "rawValue",
                    "type": "uint256"
                }
            ],
            "stateMutability": "view",
            "type": "function"
        },
        {
            "inputs": [],
            "name": "emergencyShutdown",
            "outputs": [],
            "stateMutability": "nonpayable",
            "type": "function"
        },
        {
            "inputs": [],
            "name": "expirationTimestamp",
            "outputs": [
                {
                    "internalType": "uint256",
                    "name": "",
                    "type": "uint256"
                }
            ],
            "stateMutability": "view",
            "type": "function"
        },
        {
            "inputs": [],
            "name": "expire",
            "outputs": [],
            "stateMutability": "nonpayable",
            "type": "function"
        },
        {
            "inputs": [],
            "name": "expiryPrice",
            "outputs": [
                {
                    "internalType": "uint256",
                    "name": "rawValue",
                    "type": "uint256"
                }
            ],
            "stateMutability": "view",
            "type": "function"
        },
        {
            "inputs": [],
            "name": "financialProductLibrary",
            "outputs": [
                {
                    "internalType": "contract FinancialProductLibrary",
                    "name": "",
                    "type": "address"
                }
            ],
            "stateMutability": "view",
            "type": "function"
        },
        {
            "inputs": [],
            "name": "finder",
            "outputs": [
                {
                    "internalType": "contract FinderInterface",
                    "name": "",
                    "type": "address"
                }
            ],
            "stateMutability": "view",
            "type": "function"
        },
        {
            "inputs": [],
            "name": "getCurrentTime",
            "outputs": [
                {
                    "internalType": "uint256",
                    "name": "",
                    "type": "uint256"
                }
            ],
            "stateMutability": "view",
            "type": "function"
        },
        {
            "inputs": [
                {
                    "internalType": "address",
                    "name": "sponsor",
                    "type": "address"
                }
            ],
            "name": "getLiquidations",
            "outputs": [
                {
                    "components": [
                        {
                            "internalType": "address",
                            "name": "sponsor",
                            "type": "address"
                        },
                        {
                            "internalType": "address",
                            "name": "liquidator",
                            "type": "address"
                        },
                        {
                            "internalType": "enum Liquidatable.Status",
                            "name": "state",
                            "type": "uint8"
                        },
                        {
                            "internalType": "uint256",
                            "name": "liquidationTime",
                            "type": "uint256"
                        },
                        {
                            "components": [
                                {
                                    "internalType": "uint256",
                                    "name": "rawValue",
                                    "type": "uint256"
                                }
                            ],
                            "internalType": "struct FixedPoint.Unsigned",
                            "name": "tokensOutstanding",
                            "type": "tuple"
                        },
                        {
                            "components": [
                                {
                                    "internalType": "uint256",
                                    "name": "rawValue",
                                    "type": "uint256"
                                }
                            ],
                            "internalType": "struct FixedPoint.Unsigned",
                            "name": "lockedCollateral",
                            "type": "tuple"
                        },
                        {
                            "components": [
                                {
                                    "internalType": "uint256",
                                    "name": "rawValue",
                                    "type": "uint256"
                                }
                            ],
                            "internalType": "struct FixedPoint.Unsigned",
                            "name": "lockedCollateralAfterWithdrawals",
                            "type": "tuple"
                        },
                        {
                            "internalType": "address",
                            "name": "disputer",
                            "type": "address"
                        },
                        {
                            "components": [
                                {
                                    "internalType": "uint256",
                                    "name": "rawValue",
                                    "type": "uint256"
                                }
                            ],
                            "internalType": "struct FixedPoint.Unsigned",
                            "name": "settlementPrice",
                            "type": "tuple"
                        }
                    ],
                    "internalType": "struct Liquidatable.LiquidationData[]",
                    "name": "liquidationData",
                    "type": "tuple[]"
                }
            ],
            "stateMutability": "view",
            "type": "function"
        },
        {
            "inputs": [],
            "name": "liquidationCollateral",
            "outputs": [
                {
                    "internalType": "uint256",
                    "name": "rawValue",
                    "type": "uint256"
                }
            ],
            "stateMutability": "view",
            "type": "function"
        },
        {
            "inputs": [],
            "name": "liquidationLiveness",
            "outputs": [
                {
                    "internalType": "uint256",
                    "name": "",
                    "type": "uint256"
                }
            ],
            "stateMutability": "view",
            "type": "function"
        },
        {
            "inputs": [
                {
                    "internalType": "address",
                    "name": "",
                    "type": "address"
                },
                {
                    "internalType": "uint256",
                    "name": "",
                    "type": "uint256"
                }
            ],
            "name": "liquidations",
            "outputs": [
                {
                    "internalType": "address",
                    "name": "sponsor",
                    "type": "address"
                },
                {
                    "internalType": "address",
                    "name": "liquidator",
                    "type": "address"
                },
                {
                    "internalType": "enum Liquidatable.Status",
                    "name": "state",
                    "type": "uint8"
                },
                {
                    "internalType": "uint256",
                    "name": "liquidationTime",
                    "type": "uint256"
                },
                {
                    "components": [
                        {
                            "internalType": "uint256",
                            "name": "rawValue",
                            "type": "uint256"
                        }
                    ],
                    "internalType": "struct FixedPoint.Unsigned",
                    "name": "tokensOutstanding",
                    "type": "tuple"
                },
                {
                    "components": [
                        {
                            "internalType": "uint256",
                            "name": "rawValue",
                            "type": "uint256"
                        }
                    ],
                    "internalType": "struct FixedPoint.Unsigned",
                    "name": "lockedCollateral",
                    "type": "tuple"
                },
                {
                    "components": [
                        {
                            "internalType": "uint256",
                            "name": "rawValue",
                            "type": "uint256"
                        }
                    ],
                    "internalType": "struct FixedPoint.Unsigned",
                    "name": "lockedCollateralAfterWithdrawals",
                    "type": "tuple"
                },
                {
                    "internalType": "address",
                    "name": "disputer",
                    "type": "address"
                },
                {
                    "components": [
                        {
                            "internalType": "uint256",
                            "name": "rawValue",
                            "type": "uint256"
                        }
                    ],
                    "internalType": "struct FixedPoint.Unsigned",
                    "name": "settlementPrice",
                    "type": "tuple"
                }
            ],
            "stateMutability": "view",
            "type": "function"
        },
        {
            "inputs": [],
            "name": "minSponsorTokens",
            "outputs": [
                {
                    "internalType": "uint256",
                    "name": "rawValue",
                    "type": "uint256"
                }
            ],
            "stateMutability": "view",
            "type": "function"
        },
        {
            "inputs": [],
            "name": "ooReward",
            "outputs": [
                {
                    "internalType": "uint256",
                    "name": "rawValue",
                    "type": "uint256"
                }
            ],
            "stateMutability": "view",
            "type": "function"
        },
        {
            "inputs": [
                {
                    "internalType": "address",
                    "name": "",
                    "type": "address"
                }
            ],
            "name": "positions",
            "outputs": [
                {
                    "components": [
                        {
                            "internalType": "uint256",
                            "name": "rawValue",
                            "type": "uint256"
                        }
                    ],
                    "internalType": "struct FixedPoint.Unsigned",
                    "name": "tokensOutstanding",
                    "type": "tuple"
                },
                {
                    "internalType": "uint256",
                    "name": "withdrawalRequestPassTimestamp",
                    "type": "uint256"
                },
                {
                    "components": [
                        {
                            "internalType": "uint256",
                            "name": "rawValue",
                            "type": "uint256"
                        }
                    ],
                    "internalType": "struct FixedPoint.Unsigned",
                    "name": "withdrawalRequestAmount",
                    "type": "tuple"
                },
                {
                    "components": [
                        {
                            "internalType": "uint256",
                            "name": "rawValue",
                            "type": "uint256"
                        }
                    ],
                    "internalType": "struct FixedPoint.Unsigned",
                    "name": "collateral",
                    "type": "tuple"
                },
                {
                    "internalType": "uint256",
                    "name": "transferPositionRequestPassTimestamp",
                    "type": "uint256"
                }
            ],
            "stateMutability": "view",
            "type": "function"
        },
        {
            "inputs": [],
            "name": "priceIdentifier",
            "outputs": [
                {
                    "internalType": "bytes32",
                    "name": "",
                    "type": "bytes32"
                }
            ],
            "stateMutability": "view",
            "type": "function"
        },
        {
            "inputs": [
                {
                    "components": [
                        {
                            "internalType": "uint256",
                            "name": "rawValue",
                            "type": "uint256"
                        }
                    ],
                    "internalType": "struct FixedPoint.Unsigned",
                    "name": "numTokens",
                    "type": "tuple"
                }
            ],
            "name": "redeem",
            "outputs": [
                {
                    "components": [
                        {
                            "internalType": "uint256",
                            "name": "rawValue",
                            "type": "uint256"
                        }
                    ],
                    "internalType": "struct FixedPoint.Unsigned",
                    "name": "amountWithdrawn",
                    "type": "tuple"
                }
            ],
            "stateMutability": "nonpayable",
            "type": "function"
        },
        {
            "inputs": [
                {
                    "components": [
                        {
                            "internalType": "uint256",
                            "name": "rawValue",
                            "type": "uint256"
                        }
                    ],
                    "internalType": "struct FixedPoint.Unsigned",
                    "name": "numTokens",
                    "type": "tuple"
                }
            ],
            "name": "repay",
            "outputs": [],
            "stateMutability": "nonpayable",
            "type": "function"
        },
        {
            "inputs": [],
            "name": "requestTransferPosition",
            "outputs": [],
            "stateMutability": "nonpayable",
            "type": "function"
        },
        {
            "inputs": [
                {
                    "components": [
                        {
                            "internalType": "uint256",
                            "name": "rawValue",
                            "type": "uint256"
                        }
                    ],
                    "internalType": "struct FixedPoint.Unsigned",
                    "name": "collateralAmount",
                    "type": "tuple"
                }
            ],
            "name": "requestWithdrawal",
            "outputs": [],
            "stateMutability": "nonpayable",
            "type": "function"
        },
        {
            "inputs": [
                {
                    "internalType": "uint256",
                    "name": "time",
                    "type": "uint256"
                }
            ],
            "name": "setCurrentTime",
            "outputs": [],
            "stateMutability": "nonpayable",
            "type": "function"
        },
        {
            "inputs": [],
            "name": "settleExpired",
            "outputs": [
                {
                    "components": [
                        {
                            "internalType": "uint256",
                            "name": "rawValue",
                            "type": "uint256"
                        }
                    ],
                    "internalType": "struct FixedPoint.Unsigned",
                    "name": "amountWithdrawn",
                    "type": "tuple"
                }
            ],
            "stateMutability": "nonpayable",
            "type": "function"
        },
        {
            "inputs": [],
            "name": "sponsorDisputeRewardPercentage",
            "outputs": [
                {
                    "internalType": "uint256",
                    "name": "rawValue",
                    "type": "uint256"
                }
            ],
            "stateMutability": "view",
            "type": "function"
        },
        {
            "inputs": [],
            "name": "timerAddress",
            "outputs": [
                {
                    "internalType": "address",
                    "name": "",
                    "type": "address"
                }
            ],
            "stateMutability": "view",
            "type": "function"
        },
        {
            "inputs": [],
            "name": "tokenCurrency",
            "outputs": [
                {
                    "internalType": "contract ExpandedIERC20",
                    "name": "",
                    "type": "address"
                }
            ],
            "stateMutability": "view",
            "type": "function"
        },
        {
            "inputs": [],
            "name": "totalPositionCollateral",
            "outputs": [
                {
                    "internalType": "uint256",
                    "name": "rawValue",
                    "type": "uint256"
                }
            ],
            "stateMutability": "view",
            "type": "function"
        },
        {
            "inputs": [],
            "name": "totalTokensOutstanding",
            "outputs": [
                {
                    "internalType": "uint256",
                    "name": "rawValue",
                    "type": "uint256"
                }
            ],
            "stateMutability": "view",
            "type": "function"
        },
        {
            "inputs": [
                {
                    "internalType": "address",
                    "name": "newSponsorAddress",
                    "type": "address"
                }
            ],
            "name": "transferPositionPassedRequest",
            "outputs": [],
            "stateMutability": "nonpayable",
            "type": "function"
        },
        {
            "inputs": [
                {
                    "components": [
                        {
                            "internalType": "uint256",
                            "name": "rawValue",
                            "type": "uint256"
                        }
                    ],
                    "internalType": "struct FixedPoint.Unsigned",
                    "name": "price",
                    "type": "tuple"
                }
            ],
            "name": "transformCollateralRequirement",
            "outputs": [
                {
                    "components": [
                        {
                            "internalType": "uint256",
                            "name": "rawValue",
                            "type": "uint256"
                        }
                    ],
                    "internalType": "struct FixedPoint.Unsigned",
                    "name": "",
                    "type": "tuple"
                }
            ],
            "stateMutability": "view",
            "type": "function"
        },
        {
            "inputs": [
                {
                    "components": [
                        {
                            "internalType": "uint256",
                            "name": "rawValue",
                            "type": "uint256"
                        }
                    ],
                    "internalType": "struct FixedPoint.Unsigned",
                    "name": "price",
                    "type": "tuple"
                },
                {
                    "internalType": "uint256",
                    "name": "requestTime",
                    "type": "uint256"
                }
            ],
            "name": "transformPrice",
            "outputs": [
                {
                    "components": [
                        {
                            "internalType": "uint256",
                            "name": "rawValue",
                            "type": "uint256"
                        }
                    ],
                    "internalType": "struct FixedPoint.Unsigned",
                    "name": "",
                    "type": "tuple"
                }
            ],
            "stateMutability": "view",
            "type": "function"
        },
        {
            "inputs": [
                {
                    "internalType": "uint256",
                    "name": "requestTime",
                    "type": "uint256"
                }
            ],
            "name": "transformPriceIdentifier",
            "outputs": [
                {
                    "internalType": "bytes32",
                    "name": "",
                    "type": "bytes32"
                }
            ],
            "stateMutability": "view",
            "type": "function"
        },
        {
            "inputs": [
                {
                    "components": [
                        {
                            "internalType": "uint256",
                            "name": "rawValue",
                            "type": "uint256"
                        }
                    ],
                    "internalType": "struct FixedPoint.Unsigned",
                    "name": "collateralAmount",
                    "type": "tuple"
                }
            ],
            "name": "withdraw",
            "outputs": [
                {
                    "components": [
                        {
                            "internalType": "uint256",
                            "name": "rawValue",
                            "type": "uint256"
                        }
                    ],
                    "internalType": "struct FixedPoint.Unsigned",
                    "name": "amountWithdrawn",
                    "type": "tuple"
                }
            ],
            "stateMutability": "nonpayable",
            "type": "function"
        },
        {
            "inputs": [
                {
                    "internalType": "uint256",
                    "name": "liquidationId",
                    "type": "uint256"
                },
                {
                    "internalType": "address",
                    "name": "sponsor",
                    "type": "address"
                }
            ],
            "name": "withdrawLiquidation",
            "outputs": [
                {
                    "components": [
                        {
                            "components": [
                                {
                                    "internalType": "uint256",
                                    "name": "rawValue",
                                    "type": "uint256"
                                }
                            ],
                            "internalType": "struct FixedPoint.Unsigned",
                            "name": "payToSponsor",
                            "type": "tuple"
                        },
                        {
                            "components": [
                                {
                                    "internalType": "uint256",
                                    "name": "rawValue",
                                    "type": "uint256"
                                }
                            ],
                            "internalType": "struct FixedPoint.Unsigned",
                            "name": "payToLiquidator",
                            "type": "tuple"
                        },
                        {
                            "components": [
                                {
                                    "internalType": "uint256",
                                    "name": "rawValue",
                                    "type": "uint256"
                                }
                            ],
                            "internalType": "struct FixedPoint.Unsigned",
                            "name": "payToDisputer",
                            "type": "tuple"
                        }
                    ],
                    "internalType": "struct Liquidatable.RewardsData",
                    "name": "",
                    "type": "tuple"
                }
            ],
            "stateMutability": "nonpayable",
            "type": "function"
        },
        {
            "inputs": [],
            "name": "withdrawPassedRequest",
            "outputs": [
                {
                    "components": [
                        {
                            "internalType": "uint256",
                            "name": "rawValue",
                            "type": "uint256"
                        }
                    ],
                    "internalType": "struct FixedPoint.Unsigned",
                    "name": "amountWithdrawn",
                    "type": "tuple"
                }
            ],
            "stateMutability": "nonpayable",
            "type": "function"
        },
        {
            "inputs": [],
            "name": "withdrawalLiveness",
            "outputs": [
                {
                    "internalType": "uint256",
                    "name": "",
                    "type": "uint256"
                }
            ],
            "stateMutability": "view",
            "type": "function"
        }
    ],
    "bytecode": "0x60806040523480156200001157600080fd5b5060405162004d1f38038062004d1f833981016040819052620000349162000790565b8051602082015160408301516060840151608085015160e086015161012087015161014088015160a089015160c08a01516101008b0151600080546001600160a81b0319166001600160a01b03851617600160a01b1790558b9a99989796959493929190620000a2620002fb565b620000b56000805460ff60a01b19169055565b620000bf6200035b565b8b11620000cb57600080fd5b620000d562000400565b6001600160a01b03166390978d1b876040518263ffffffff1660e01b81526004016200010391815260200190565b60206040518083038186803b1580156200011c57600080fd5b505afa15801562000131573d6000803e3d6000fd5b505050506040513d601f19601f820116820180604052508101906200015791906200091d565b6200016157600080fd5b60098b9055600a8a9055600480546001600160a01b03808b166001600160a01b03199283161790925560058054928c16929091169190911790558451600b558351600d5560078690558051620001bf9060089060208401906200057e565b50600680546001600160a01b03808a166001600160a01b031992831617909255600e805492851692909116919091179055620002096000805460ff60a01b1916600160a01b179055565b505050505050505050505062000224620002fb60201b60201c565b620002376000805460ff60a01b19169055565b620002576001826101800151620004a060201b620026da1790919060201c565b6200026157600080fd5b6200029f60016200028b836101e00151846101c00151620004b960201b620026f11790919060201c565b620004fe60201b6200271d1790919060201c565b620002a957600080fd5b610160810151601155610180810151516012556101a0810151516013556101c0810151516014556101e081015151601555620002f36000805460ff60a01b1916600160a01b179055565b505062000a09565b600054600160a01b900460ff16620003595760405162461bcd60e51b815260206004820152601f60248201527f5265656e7472616e637947756172643a207265656e7472616e742063616c6c00604482015260640160405180910390fd5b565b600080546001600160a01b031615620003fb5760008054906101000a90046001600160a01b03166001600160a01b03166329cb924d6040518163ffffffff1660e01b815260040160206040518083038186803b158015620003bb57600080fd5b505afa158015620003d0573d6000803e3d6000fd5b505050506040513d601f19601f82011682018060405250810190620003f6919062000941565b905090565b504290565b6006546040516302abf57960e61b81527f4964656e74696669657257686974656c6973740000000000000000000000000060048201526000916001600160a01b03169063aafd5e409060240160206040518083038186803b1580156200046557600080fd5b505afa1580156200047a573d6000803e3d6000fd5b505050506040513d601f19601f82011682018060405250810190620003f691906200095b565b6000620004ad8262000517565b51835111905092915050565b6040805160208101909152600081526040518060200160405280620004f5846000015186600001516200055b60201b620027341790919060201c565b90529392505050565b60006200050b8262000517565b51835110905092915050565b604080516020810190915260008152604051806020016040528062000553670de0b6b3a7640000856200057060201b620027401790919060201c565b905292915050565b60006200056982846200098f565b9392505050565b6000620005698284620009aa565b8280546200058c90620009cc565b90600052602060002090601f016020900481019282620005b05760008555620005fb565b82601f10620005cb57805160ff1916838001178555620005fb565b82800160010185558215620005fb579182015b82811115620005fb578251825591602001919060010190620005de565b50620006099291506200060d565b5090565b5b808211156200060957600081556001016200060e565b634e487b7160e01b600052604160045260246000fd5b60405161020081016001600160401b038111828210171562000660576200066062000624565b60405290565b604051601f8201601f191681016001600160401b038111828210171562000691576200069162000624565b604052919050565b80516001600160a01b0381168114620006b157600080fd5b919050565b600082601f830112620006c857600080fd5b81516001600160401b03811115620006e457620006e462000624565b6020620006fa601f8301601f1916820162000666565b82815285828487010111156200070f57600080fd5b60005b838110156200072f57858101830151828201840152820162000712565b83811115620007415760008385840101525b5095945050505050565b6000602082840312156200075e57600080fd5b604051602081016001600160401b038111828210171562000783576200078362000624565b6040529151825250919050565b600060208284031215620007a357600080fd5b81516001600160401b0380821115620007bb57600080fd5b908301906102008286031215620007d157600080fd5b620007db6200063a565b8251815260208301516020820152620007f76040840162000699565b60408201526200080a6060840162000699565b60608201526200081d6080840162000699565b60808201526200083060a0840162000699565b60a08201526200084360c0840162000699565b60c082015260e083015160e082015261010080840151838111156200086757600080fd5b6200087588828701620006b6565b82840152505061012091506200088e868385016200074b565b828201526101409150620008a5868385016200074b565b82820152610160915081830151828201526101809150620008c9868385016200074b565b828201526101a09150620008e0868385016200074b565b828201526101c09150620008f7868385016200074b565b828201526101e091506200090e868385016200074b565b91810191909152949350505050565b6000602082840312156200093057600080fd5b815180151581146200056957600080fd5b6000602082840312156200095457600080fd5b5051919050565b6000602082840312156200096e57600080fd5b620005698262000699565b634e487b7160e01b600052601160045260246000fd5b60008219821115620009a557620009a562000979565b500190565b6000816000190483118215151615620009c757620009c762000979565b500290565b600181811c90821680620009e157607f821691505b6020821081141562000a0357634e487b7160e01b600052602260045260246000fd5b50919050565b6143068062000a196000396000f3fe608060405234801561001057600080fd5b50600436106102405760003560e01c80635aa266c9116101375780635aa266c9146104a65780635f1af1ca146104b957806362b5f7f5146104cc57806365599057146104df5780636ba2f992146104f45780637048594b1461050757806379599f961461051a5780637e398c221461052257806385209ee01461052c57806392120aec1461054d5780639375f0e914610557578063975236611461056a5780639f43ddd2146105735780639ff4dea81461057c578063a1c4d1e714610585578063a765fbea146105a5578063b795f0d4146105b8578063b9a3c84c146105c0578063bc121630146105d3578063d1e92c11146105e6578063e3c0f9cb146105f9578063edfa9a9b14610603578063f0391daf1461060d578063fcccedc71461061757600080fd5b8063081b314e146102455780630c9229ca146102625780630de15fd91461026c5780630ff49b901461028c57806318928a0c146102ae578063197f7848146102c35780631c39c38d146102d657806322611280146102e957806322f8e566146102f157806325ed4dd81461030457806329cb924d1461032b5780632d5436cf146103335780632e154f2e1461033c57806333a46ca2146103465780633403c2fc1461034e578063360598e11461035657806336980f581461038e5780633ee7a5ce1461039657806343e4771b146103a957806348e30c3f146103b35780634ead6e51146103bd5780634f8c4847146103e257806355f575101461040a5780635617151c14610493575b600080fd5b60145461024f9081565b6040519081526020015b60405180910390f35b60025461024f9081565b60055461027f906001600160a01b031681565b6040516102599190613b55565b61029f61029a366004613bb8565b61061f565b60405190518152602001610259565b6102c16102bc366004613bf8565b610642565b005b61029f6102d1366004613c2e565b6106f2565b60005461027f906001600160a01b031681565b6102c161070b565b6102c16102ff366004613c4a565b61077e565b610317610312366004613c75565b6107f4565b604080519283529051602083015201610259565b61024f610d6d565b61024f60115481565b60135461024f9081565b61029f610e10565b6102c1610f2c565b610369610364366004613cd6565b610fea565b6040805182515181526020808401515190820152918101515190820152606001610259565b6102c161146a565b61029f6103a4366004613c2e565b6114fc565b60035461024f9081565b60125461024f9081565b6103d06103cb366004613d06565b6115ad565b60405160ff9091168152602001610259565b6103f56103f0366004613d23565b611624565b60405161025999989796959493929190613d6b565b610466610418366004613d06565b60016020818152600092835260409283902083518083018552815481529281015484518084018652600283015481528551938401909552600382015483526004909101549293909290919085565b6040805195518652602086019490945291519284019290925290516060830152608082015260a001610259565b6102c16104a1366004613d06565b6116c9565b6102c16104b4366004613c2e565b61185c565b61029f6104c7366004613c2e565b6119bd565b61024f6104da366004613c4a565b611bc9565b6104e7611bdc565b6040516102599190613e23565b6102c1610502366004613e36565b611c6a565b60045461027f906001600160a01b031681565b6102c1611eee565b60155461024f9081565b60005461054090600160a81b900460ff1681565b6040516102599190613e53565b600b5461024f9081565b600e5461027f906001600160a01b031681565b61024f60075481565b61024f60095481565b61024f600a5481565b610598610593366004613d06565b611f60565b6040516102599190613e6d565b61029f6105b3366004613cd6565b6120a3565b6102c16121f1565b60065461027f906001600160a01b031681565b6102c16105e1366004613c2e565b612263565b6102c16105f4366004613c2e565b61232b565b60105461024f9081565b600c5461024f9081565b600d5461024f9081565b61029f612338565b610627613b10565b61062f61274c565b61063983836127a5565b90505b92915050565b61064a612859565b81610654816128ac565b61065c61274c565b6106646128d6565b61066f8260006126da565b61067857600080fd5b6000610683846128e5565b905061068f818461290d565b5082516040516001600160a01b038616907fe1fffcc4923d04b559f4d29a8bfc6cda04eb5b0d3c460751c2402c5c5cc9109c90600090a382516005546106e4916001600160a01b03909116903390309061295e565b506106ed6129cf565b505050565b6106fa613b10565b61070261274c565b61063c826129e4565b61071361274c565b61071b6128d6565b6000610726336128e5565b905080600101546000141561073a57600080fd5b600281015460405133907f74d8a3658feb89d1a5c335229bbbfc3bbcfaf492769feb7aa4cd2d92efeaf69190600090a361077381612aaf565b5061077c6129cf565b565b6000546001600160a01b031661079357600080fd5b60005460405163117c72b360e11b8152600481018390526001600160a01b03909116906322f8e56690602401600060405180830381600087803b1580156107d957600080fd5b505af11580156107ed573d6000803e3d6000fd5b5050505050565b60006107fe613b10565b610806612859565b61080e61274c565b6108166128d6565b8261081f610d6d565b11156108695760405162461bcd60e51b81526020600482015260146024820152734d696e656420616674657220646561646c696e6560601b60448201526064015b60405180910390fd5b6000610874886128e5565b905061089c61088836879003870187613c2e565b604080516020810190915283548152612ac9565b91506108a98260006126da565b6108b257600080fd5b60408051602081019091526003820154815260006108cf81612ae7565b604080516020810190915260028501549081905283519192501161090d5760408051602081019091526002840154815261090a908390612b15565b90505b6040805160208101909152835481526109428261093983610933368e90038e018e613c2e565b90612b38565b90519051101590565b61098e5760405162461bcd60e51b815260206004820152601e60248201527f4352206973206d6f7265207468616e206d6178206c69712e20707269636500006044820152606401610860565b6109ae826109a583610933368f90038f018f613c2e565b90519051111590565b6109fa5760405162461bcd60e51b815260206004820152601e60248201527f4352206973206c657373207468616e206d696e206c69712e20707269636500006044820152606401610860565b50610a03613b10565b610a0b613b10565b604080516020810190915285548152600090610a28908890612b6e565b9050610a348582612b38565b9250610a408482612b38565b604080516020810190915260028801548152909250600090610a629083612b38565b9050610a708e898684612ba3565b50506040805160208082018352600d54825282519081019092526010548252610aa391610a9d90856126f1565b906126f1565b516010556001600160a01b038c166000818152600f6020908152604091829020805483516101208101855294855233928501929092529099509190810160018152602001610aef610d6d565b815260200188815260200184815260200183815260200160006001600160a01b03168152602001610b206000612ae7565b90528154600181810184556000938452602093849020835160089093020180546001600160a01b039384166001600160a01b0319918216178255948401519181018054929093169482168517835560408401519394909392916001600160a81b03191617600160a01b836004811115610b9b57610b9b613d41565b021790555060608201516002820155608082015151600382015560a082015151600482015560c082015151600582015560e08201516006820180546001600160a01b0319166001600160a01b0390921691909117905561010090910151516007909101556040805160208101909152600b548152600186015415801590610c2c5750610c25610d6d565b8660010154115b8015610c3a57508051875110155b15610c5957610c53600a54610c4d610d6d565b90612734565b60018701555b87336001600160a01b03168e6001600160a01b03167f39b4371645b4132767fd76a1aad3108ff95c20d7b687b24d171555f5459a75978a6000015187600001518760000151610ca6610d6d565b604051610cb69493929190613f27565b60405180910390a48651600454610cdc916001600160a01b03909116903390309061295e565b600480548851604051630852cd8d60e31b8152928301526001600160a01b0316906342966c6890602401600060405180830381600087803b158015610d2057600080fd5b505af1158015610d34573d6000803e3d6000fd5b5050600d54600554610d5593506001600160a01b031691503390309061295e565b505050505050610d636129cf565b9550959350505050565b600080546001600160a01b031615610e085760008054906101000a90046001600160a01b03166001600160a01b03166329cb924d6040518163ffffffff1660e01b815260040160206040518083038186803b158015610dcb57600080fd5b505afa158015610ddf573d6000803e3d6000fd5b505050506040513d601f19601f82011682018060405250810190610e039190613f42565b905090565b504290565b90565b610e18613b10565b610e20612859565b610e2861274c565b610e306128d6565b6000610e3b336128e5565b90508060010154600014158015610e5d5750610e55610d6d565b816001015411155b610e6657600080fd5b610e6e613b10565b6040805160208082018352600385015482528251908101909252600284015491829052511015610eb05750604080516020810190915260038201548152610ec4565b506040805160208101909152600282015481525b610ece8282612ca4565b9250610ed982612aaf565b8251600554610ef5916001600160a01b03909116903390612ceb565b825160405133907fc86c3298cb79f486674dca87d9247e88b76146160e7d412cc59b26b14c358a6890600090a35050610e0d6129cf565b610f34612859565b610f3c612d0a565b610f4461274c565b610f4c6128d6565b610f54612d73565b6001600160a01b0316336001600160a01b031614610f7157600080fd5b6000805460ff60a81b1916600160a81b179055600954610f8f610d6d565b6009819055610f9d90612e0a565b60095460405133917fd39eeb7157d9c446579a0893ecf9ecd87d1f466cdb270c6a189cf38ca1e30f4891610fd991858252602082015260400190565b60405180910390a25061077c6129cf565b610ff2613b23565b8282610ffe8282612ef3565b61100661274c565b61100e6128d6565b600061101a8587612fa8565b90506110268686613080565b60408051602080820183526007840154825282519081019092526003830154825260009161105391612b38565b604080516020810190915260155481529091506000906110739083612b38565b604080516020810190915260145481529091506000906110939084612b38565b604080516020808201835260135482528251908101909252600487015482529192506000916110c29190612b38565b90506110cc613b23565b60036001870154600160a01b900460ff1660048111156110ee576110ee613d41565b1415611226576040805160208101909152600d54815261111290610a9d86856126f1565b6040808301919091528051602081019091526004870154815261113b908490610a9d9088612b15565b81526111518461114b8786612b15565b90612b15565b6020808301829052604080519182019052601054815261117091612b15565b516010819055815160408051602081019091529182526111909190612b15565b5160108190556040808301518151602081019092529181526111b191612b15565b5160105560068601546040820151516005546111db926001600160a01b0391821692911690612ceb565b6001860154602082015151600554611201926001600160a01b0391821692911690612ceb565b8554815151600554611221926001600160a01b0391821692911690612ceb565b61135d565b60046001870154600160a01b900460ff16600481111561124857611248613d41565b14156112c4576040805160208082018352600d54825282519081019092526004880154825261127b91610a9d90856126f1565b6020808301829052604080519182019052601054815261129a91612b15565b516010556001860154602082015151600554611221926001600160a01b0391821692911690612ceb565b600180870154600160a01b900460ff1660048111156112e5576112e5613d41565b141561135d576040805160208082018352600d54825282519081019092526004880154825261131491906126f1565b6020808301829052604080519182019052601054815261133391612b15565b51601055600186015460208201515160055461135d926001600160a01b0391821692911690612ceb565b6001860154600160a01b900460ff16600481111561137d5761137d613d41565b6020820151516040808401515184515160078b0154925133947fb479588a37dc7f6bac1c91587fcfc539cac4949cf26bb536ad9c8d061f00f50d946113c59491939192613f27565b60405180910390a36001600160a01b038a166000908152600f6020526040902080548c9081106113f7576113f7613f5b565b60009182526020822060089091020180546001600160a01b031990811682556001820180546001600160a81b031916905560028201839055600382018390556004820183905560058201839055600682018054909116905560070155975050505050506114626129cf565b505092915050565b611472612859565b61147a61274c565b6114826128d6565b600061148d336128e5565b905080600401546000146114a057600080fd5b60006114b0600a54610c4d610d6d565b905060095481106114c057600080fd5b6004820181905560405133907fbf457c80c8bf299d5c48272c4c1168bf87b33d83b13f0ab9aac332ce1161ed1e90600090a2505061077c6129cf565b611504613b10565b61150c612859565b33611516816128ac565b61151e61274c565b6115266128d6565b6115318360006126da565b61153a57600080fd5b6000611545336128e5565b905061155181856131df565b80516040519194509033907f7fcf532c15f0a6db0bd6d0e038bea71d30d808c7d98cb3bf7268a95bf5081b6590600090a3825160055461159e916001600160a01b03909116903390612ceb565b506115a76129cf565b50919050565b6000816001600160a01b031663313ce5676040518163ffffffff1660e01b815260040160206040518083038186803b1580156115e857600080fd5b505afa925050508015611618575060408051601f3d908101601f1916820190925261161591810190613f71565b60015b61063c57506012919050565b600f602052816000526040600020818154811061164057600080fd5b600091825260209182902060089190910201805460018201546002830154604080518087018252600386015481528151808801835260048701548152825180890184526005880154815260068801548451998a0190945260079097015488526001600160a01b0395861699508585169850600160a01b90940460ff169692959094909291169089565b6116d1612859565b336116db816128ac565b6116e361274c565b6116eb6128d6565b61172c6116f86000612ae7565b6001600160a01b03841660009081526001602090815260409182902082519182019092526003909101548152905190511490565b61173557600080fd5b6000611740336128e5565b90508060040154600014158015611762575061175a610d6d565b816004015411155b61176b57600080fd5b600060048083018281556001600160a01b038616808452600160208190526040808620875481558288015481840155600280890154818301556003808a0154818401559554918701919091553380885282882088815593840188905590830187905593820186905593018490559151919290917ff1a2dcf23621f1a96185c79d39a5776b5ba3dadbea70c5aa86d84c17c7e9418e9190a36040516001600160a01b038416907ff60993fa76f94c9e0a803526ee6e1314814ed4d2b0d223febf1436b36897fb3790600090a260405133906000805160206142b183398151915290600090a2506118586129cf565b5050565b611864612859565b3361186e816128ac565b61187661274c565b61187e6128d6565b6000611889336128e5565b6040805160208101909152815490819052845191925010156118aa57600080fd5b6040805160208101909152815481526000906118c69085612b15565b6040805160208101909152600b5490819052815191925011156118e857600080fd5b80518255604080516020810190915260025481526119069085612b15565b516002558051845160405133907f77c6871227e5d2dec8dadd5354f78453203e22e669cd0ec4c19d9a8c5edb31d090600090a48351600454611957916001600160a01b03909116903390309061295e565b600480548551604051630852cd8d60e31b8152928301526001600160a01b0316906342966c6890602401600060405180830381600087803b15801561199b57600080fd5b505af11580156119af573d6000803e3d6000fd5b5050505050506118586129cf565b6119c5613b10565b336119cf816128ac565b6119d761274c565b6119df6128d6565b60006119ea336128e5565b604080516020810190915281549081905285519192501015611a0b57600080fd5b604080516020810190915281548152600090611a28908690612b6e565b604080516020810190915260038401548152909150600090611a4b908390612b38565b604080516020810190915284549081905287519192501415611a7757611a703361326e565b9450611af9565b611a818382612ca4565b604080516020810190915284548152909550600090611aa09088612b15565b6040805160208101909152600b549081905281519192501115611ad55760405162461bcd60e51b815260040161086090613f94565b8051845560408051602081019091526002548152611af39088612b15565b51600255505b8551855160405133907fe5b754fb1abb7f01b499791d0b820ae3b6af3424ac1c59768edb53f4ec31a92990600090a48451600554611b44916001600160a01b03909116903390612ceb565b8551600454611b62916001600160a01b03909116903390309061295e565b600480548751604051630852cd8d60e31b8152928301526001600160a01b0316906342966c6890602401600060405180830381600087803b158015611ba657600080fd5b505af1158015611bba573d6000803e3d6000fd5b505050505050506115a76129cf565b6000611bd361274c565b61063c82613357565b60088054611be990613fcb565b80601f0160208091040260200160405190810160405280929190818152602001828054611c1590613fcb565b8015611c625780601f10611c3757610100808354040283529160200191611c62565b820191906000526020600020905b815481529060010190602001808311611c4557829003601f168201915b505050505081565b611c72612859565b611c7a61274c565b611c826128d6565b33600090815260016020908152604091829020825191820190925260038201548152611cd090611cb290856126f1565b604080516020810190915283548152611ccb90856126f1565b61340b565b80611ce05750611ce0838361340b565b611d265760405162461bcd60e51b8152602060048201526017602482015276125b9cdd59999a58da595b9d0818dbdb1b185d195c985b604a1b6044820152606401610860565b600181015415611d485760405162461bcd60e51b815260040161086090614000565b604080516020810190915281548152611d6290600061345c565b15611dc5576040805160208101909152600b549081905282511015611d995760405162461bcd60e51b815260040161086090613f94565b60405133907ff60993fa76f94c9e0a803526ee6e1314814ed4d2b0d223febf1436b36897fb3790600090a25b611dcf818461290d565b50604080516020810190915281548152611de990836126f1565b51815560408051602081019091526002548152611e0690836126f1565b516002558151835160405133907f4b82aa16e071a61de1a6b9aeec9edab0356331f8122c78683b469ac8e685dabc90600090a48251600554611e57916001600160a01b03909116903390309061295e565b6004805483516040516340c10f1960e01b81526001600160a01b03909216926340c10f1992611e8a92339290910161402c565b602060405180830381600087803b158015611ea457600080fd5b505af1158015611eb8573d6000803e3d6000fd5b505050506040513d601f19601f82011682018060405250810190611edc9190614045565b611ee557600080fd5b506118586129cf565b611ef6613473565b611efe612d0a565b611f0661274c565b611f0e6128d6565b6000805460ff60a81b1916600160a81b179055600954611f2d90612e0a565b60405133907f18600820405d6cf356e3556301762ca32395e72d8c81494fa344835c9da3633d90600090a261077c6129cf565b6060611f6a61274c565b6001600160a01b0382166000908152600f6020908152604080832080548251818502810185019093528083529193909284015b8282101561209857600084815260209081902060408051610120810182526008860290920180546001600160a01b039081168452600182015490811694840194909452919290830190600160a01b900460ff16600481111561200157612001613d41565b600481111561201257612012613d41565b815260028201546020808301919091526040805180830182526003850154815281840152805180830182526004850154815260608401528051808301825260058501548152608084015260068401546001600160a01b031660a08401528051808301909152600790930154835260c0909101919091529082526001929092019101611f9d565b505050509050919050565b6120ab613b10565b82826120b782826134c8565b6120bf61274c565b6120c76128d6565b60006120d38587612fa8565b604080516020808201835260135482528251908101909252600483015482529192506000916121029190612b38565b6040805160208101909152601054815290915061211f90826126f1565b5160105560018201805460ff60a01b1916600160a11b1790556006820180546001600160a01b03191633179055600282015461215a90612e0a565b60018201548151604080518a8152602081019290925233926001600160a01b0390811692908a16917fcaca181ccad7979cf36ed4fc921e496001ab5264608f0fac7007ae1b43d36102910160405180910390a46040805160208101909152600d5481526121c89082906126f1565b81516005549196506121e7916001600160a01b0316903390309061295e565b50506114626129cf565b6121f9612859565b61220161274c565b6122096128d6565b6000612214336128e5565b905080600401546000141561222857600080fd5b60405133907f2e5702420c76e041698ad7ba57a9ff5cadccf647ea8d96e6007a40b5b2662f5690600090a2600060049091015561077c6129cf565b61226b612859565b33612275816128ac565b61227d61274c565b6122856128d6565b6000612290336128e5565b905061229d8360006126da565b80156122bd57506040805160208101909152600382015490819052835111155b6122c657600080fd5b60006122d6600a54610c4d610d6d565b905060095481106122e657600080fd5b6001820181905583516002830181905560405133907fd33b726e11d2c5d38e6702b16613df0160a07f7ba5185455ee3c45d0494fab1190600090a350506118586129cf565b6123353382610642565b50565b612340613b10565b612348613473565b61235061274c565b6123586128d6565b60008054600160a81b900460ff16600281111561237757612377613d41565b14156123ba5760405162461bcd60e51b81526020600482015260126024820152712ab732bc3834b932b2103837b9b4ba34b7b760711b6044820152606401610860565b6002600054600160a81b900460ff1660028111156123da576123da613d41565b14612402576123ea60095461355b565b51600c556000805460ff60a81b1916600160a91b1790555b6040805160208101918290526004546370a0823160e01b90925260009181906001600160a01b03166370a0823161243c3360248501613b55565b60206040518083038186803b15801561245457600080fd5b505afa158015612468573d6000803e3d6000fd5b505050506040513d601f19601f8201168201806040525081019061248c9190613f42565b90526040805160208101909152600c5481529091506000906124af908390612b38565b3360009081526001602090815260408083208151928301909152600381015482529293506124dc916126da565b156125a8576040805160208082018352600c54825282519081019092528254825260009161250991612b38565b604080516020810190915260038401548152909150600061252c83835190511090565b612545576040518060200160405280600081525061254f565b61254f8284612b15565b905061255b85826126f1565b336000818152600160208190526040808320838155918201839055600282018390556003820183905560049091018290555192975090916000805160206142b18339815191529190a25050505b604080516020810190915260035481526000906125c59084612ac9565b604080516020810190915260035481529091506125e29082612b15565b516003556040805160208101909152600254815290945084906126059085612b15565b516002558351855160405133907f9d349c102bec959fb7f20f9a3621e015819d3ae4ed6e9afd1f56a69d5845600690600090a48451600554612654916001600160a01b03909116903390612ceb565b8351600454612672916001600160a01b03909116903390309061295e565b600480548551604051630852cd8d60e31b8152928301526001600160a01b0316906342966c6890602401600060405180830381600087803b1580156126b657600080fd5b505af11580156126ca573d6000803e3d6000fd5b5050505050505050610e0d6129cf565b60006126e582612ae7565b51835111905092915050565b6126f9613b10565b60408051602081019091528251845182916127149190612734565b90529392505050565b600061272882612ae7565b51835110905092915050565b6000610639828461407d565b60006106398284614095565b600054600160a01b900460ff1661077c5760405162461bcd60e51b815260206004820152601f60248201527f5265656e7472616e637947756172643a207265656e7472616e742063616c6c006044820152606401610860565b6127ad613b10565b600e546127c2906001600160a01b03166136b7565b6127cd57508161063c565b600e5460405162ff49b960e41b815284516004820152602481018490526001600160a01b0390911690630ff49b909060440160206040518083038186803b15801561281757600080fd5b505afa925050508015612847575060408051601f3d908101601f19168201909252612844918101906140b4565b60015b61285257508161063c565b905061063c565b600954612864610d6d565b1061077c5760405162461bcd60e51b81526020600482015260186024820152774f6e6c792063616c6c61626c65207072652d65787069727960401b6044820152606401610860565b6128b5816128e5565b60010154156123355760405162461bcd60e51b815260040161086090614000565b6000805460ff60a01b19169055565b6000816128f1816136c6565b50506001600160a01b0316600090815260016020526040902090565b612915613b10565b60408051602081019091526003840154815261293190836126f1565b5160038085019190915560408051602081019091529054815261295490836126f1565b5160035550919050565b6040516001600160a01b03808516602483015283166044820152606481018290526129c99085906323b872dd60e01b906084015b60408051601f198184030181529190526020810180516001600160e01b03166001600160e01b031990931692909217909152613741565b50505050565b6000805460ff60a01b1916600160a01b179055565b6129ec613b10565b600e54612a01906001600160a01b03166136b7565b612a1a5750506040805160208101909152601254815290565b600e54604051632a31263760e01b81528351600482015260125460248201526001600160a01b0390911690632a3126379060440160206040518083038186803b158015612a6657600080fd5b505afa925050508015612a96575060408051601f3d908101601f19168201909252612a93918101906140b4565b60015b61063c5750506040805160208101909152601254815290565b612ab96000612ae7565b5160028201556000600190910155565b612ad1613b10565b8151835110612ae05781610639565b5090919050565b612aef613b10565b604080516020810190915280612b0d84670de0b6b3a7640000612740565b905292915050565b612b1d613b10565b60408051602081019091528251845182916127149190613813565b612b40613b10565b6040805160208101909152825184518291670de0b6b3a764000091612b6491612740565b6127149190614103565b612b76613b10565b604080516020810190915282518451829161271491612b9d90670de0b6b3a7640000612740565b9061381f565b6000612bae856128e5565b60408051602081019091528154908190528551919250148015612be4575060408051602081019091526003820154908190528351145b15612bf957612bf28561326e565b50506129c9565b612c038184612ca4565b50604080516020810190915281548152600090612c209086612b15565b6040805160208101909152600b549081905281519192501115612c555760405162461bcd60e51b815260040161086090613f94565b80518255604080516020810190915260028301548152612c759084612b15565b51600280840191909155604080516020810190915290548152612c989086612b15565b51600255505050505050565b612cac613b10565b604080516020810190915260038401548152612cc89083612b15565b516003808501919091556040805160208101909152905481526129549083612b15565b6106ed8363a9059cbb60e01b848460405160240161299292919061402c565b60008054600160a81b900460ff166002811115612d2957612d29613d41565b1461077c5760405162461bcd60e51b815260206004820152601a60248201527921b7b73a3930b1ba1039ba30ba329034b9903737ba1027a822a760311b6044820152606401610860565b6006546040516302abf57960e61b8152762334b730b731b4b0b621b7b73a3930b1ba39a0b236b4b760491b60048201526000916001600160a01b03169063aafd5e40906024015b60206040518083038186803b158015612dd257600080fd5b505afa158015612de6573d6000803e3d6000fd5b505050506040513d601f19601f82011682018060405250810190610e039190614125565b6000612e1461382b565b600d54600554919250612e34916001600160a01b0316903390309061295e565b600d54600554612e51916001600160a01b0390911690839061386f565b806001600160a01b03166311df92f1612e6984613357565b600554600d546040516001600160e01b031960e086901b168152612ea1939288926008926001600160a01b03909216916004016141e2565b602060405180830381600087803b158015612ebb57600080fd5b505af1158015612ecf573d6000803e3d6000fd5b505050506040513d601f19601f820116820180604052508101906106ed9190613f42565b6000612eff8284612fa8565b600181810154919250600160a01b90910460ff1690816004811115612f2657612f26613d41565b1180612f5d5750612f35610d6d565b612f3e8361391e565b11158015612f5d57506001816004811115612f5b57612f5b613d41565b145b6129c95760405162461bcd60e51b815260206004820152601c60248201527b4c69717569646174696f6e206e6f7420776974686472617761626c6560201b6044820152606401610860565b6001600160a01b0382166000908152600f6020526040812080548310801561301257506000818481548110612fdf57612fdf613f5b565b906000526020600020906008020160010160149054906101000a900460ff16600481111561300f5761300f613d41565b14155b6130575760405162461bcd60e51b8152602060048201526016602482015275125b9d985b1a59081b1a5c5d5a59185d1a5bdb88125160521b6044820152606401610860565b80838154811061306957613069613f5b565b906000526020600020906008020191505092915050565b600061308c8284612fa8565b905060026001820154600160a01b900460ff1660048111156130b0576130b0613d41565b146130ba57505050565b6130c7816002015461355b565b516007820181905560408051602080820183529281528151928301909152600383015482526000916130f891612b38565b6040805160208101909152600784015481529091506000906131249061311d906129e4565b8390612b38565b6040805160208101909152600585015490819052815191925010158061314b57600461314e565b60035b60018501805460ff60a01b1916600160a01b83600481111561317257613172613d41565b021790555060018401546006850154604080516001600160a01b039283168152602081018a9052841515818301529051928216929188169133917f6c5582199868fabbe697f9ea10abe481bacf53ac78c02a965b34dff82fd20e3b919081900360600190a4505050505050565b6131e7613b10565b6040805160208101909152600384015481526132039083612b15565b516003808501919091556040805160208101909152905481526132269083612b15565b5160035561323383613939565b6115a75760405162461bcd60e51b815260206004820152600c60248201526b21a9103132b637bb9023a1a960a11b6044820152606401610860565b613276613b10565b6000613281836128e5565b604080516020808201835260038054808452845180840186529186015482528451928301909452928152929350916132b891612b15565b51600355604080516020808201835284548252825190810190925260025482526132e29190612b15565b5160029081556001600160a01b038516600081815260016020819052604080832083815591820183905593810182905560038101829055600401819055915190916000805160206142b183398151915291a26040805160208101909152600354815261334f908290612b15565b949350505050565b600e5460009061336f906001600160a01b03166136b7565b61337b57505060075490565b600e5460075460405163f19371b760e01b81526001600160a01b039092169163f19371b7916133b7918690600401918252602082015260400190565b60206040518083038186803b1580156133cf57600080fd5b505afa9250505080156133ff575060408051601f3d908101601f191682019092526133fc91810190613f42565b60015b61063c57505060075490565b6040805160208082018352600354825282519081019092526002548252600091829161343691613964565b905060006134448585613964565b905061345282825190511190565b1595945050505050565b600061346782612ae7565b51835114905092915050565b60095461347e610d6d565b101561077c5760405162461bcd60e51b81526020600482015260196024820152784f6e6c792063616c6c61626c6520706f73742d65787069727960381b6044820152606401610860565b60006134d48284612fa8565b90506134df8161391e565b6134e7610d6d565b1080156135125750600180820154600160a01b900460ff16600481111561351057613510613d41565b145b6106ed5760405162461bcd60e51b815260206004820152601a6024820152794c69717569646174696f6e206e6f742064697370757461626c6560301b6044820152606401610860565b613563613b10565b600061356d61382b565b9050806001600160a01b031663bc58ccaa3061358886613357565b8660086040518563ffffffff1660e01b81526004016135aa949392919061421e565b60206040518083038186803b1580156135c257600080fd5b505afa1580156135d6573d6000803e3d6000fd5b505050506040513d601f19601f820116820180604052508101906135fa9190614045565b61360357600080fd5b6000816001600160a01b03166353b5923961361d86613357565b8660086040518463ffffffff1660e01b815260040161363e93929190614255565b602060405180830381600087803b15801561365857600080fd5b505af115801561366c573d6000803e3d6000fd5b505050506040513d601f19601f820116820180604052508101906136909190613f42565b9050600081121561369f575060005b61334f604051806020016040528083815250856127a5565b6001600160a01b03163b151590565b6001600160a01b038116600090815260016020908152604080832081519283019091526003015481526136f8916126da565b6123355760405162461bcd60e51b815260206004820152601a602482015279141bdcda5d1a5bdb881a185cc81b9bc818dbdb1b185d195c985b60321b6044820152606401610860565b6000613796826040518060400160405280602081526020017f5361666545524332303a206c6f772d6c6576656c2063616c6c206661696c6564815250856001600160a01b031661398f9092919063ffffffff16565b8051909150156106ed57808060200190518101906137b49190614045565b6106ed5760405162461bcd60e51b815260206004820152602a60248201527f5361666545524332303a204552433230206f7065726174696f6e20646964206e6044820152691bdd081cdd58d8d9595960b21b6064820152608401610860565b6000610639828461427d565b60006106398284614103565b6006546040516302abf57960e61b81526f4f7074696d69737469634f7261636c6560801b60048201526000916001600160a01b03169063aafd5e4090602401612dba565b604051636eb1769f60e11b81523060048201526001600160a01b038381166024830152600091839186169063dd62ed3e9060440160206040518083038186803b1580156138bb57600080fd5b505afa1580156138cf573d6000803e3d6000fd5b505050506040513d601f19601f820116820180604052508101906138f39190613f42565b6138fd919061407d565b90506129c98463095ea7b360e01b858460405160240161299292919061402c565b600061063c601154836002015461273490919063ffffffff16565b60408051602080820183526003840154825282519081019092528254825260009161063c919061340b565b61396c613b10565b6139778260006126da565b613985576128526000612ae7565b6128528383612b6e565b606061399e84846000856139a8565b90505b9392505050565b606082471015613a095760405162461bcd60e51b815260206004820152602660248201527f416464726573733a20696e73756666696369656e742062616c616e636520666f6044820152651c8818d85b1b60d21b6064820152608401610860565b613a12856136b7565b613a5e5760405162461bcd60e51b815260206004820152601d60248201527f416464726573733a2063616c6c20746f206e6f6e2d636f6e74726163740000006044820152606401610860565b600080866001600160a01b03168587604051613a7a9190614294565b60006040518083038185875af1925050503d8060008114613ab7576040519150601f19603f3d011682016040523d82523d6000602084013e613abc565b606091505b5091509150613acc828286613ad7565b979650505050505050565b60608315613ae65750816139a1565b825115613af65782518084602001fd5b8160405162461bcd60e51b81526004016108609190613e23565b6040518060200160405280600081525090565b6040518060600160405280613b36613b10565b8152602001613b43613b10565b8152602001613b50613b10565b905290565b6001600160a01b0391909116815260200190565b600060208284031215613b7b57600080fd5b604051602081018181106001600160401b0382111715613bab57634e487b7160e01b600052604160045260246000fd5b6040529135825250919050565b60008060408385031215613bcb57600080fd5b613bd58484613b69565b946020939093013593505050565b6001600160a01b038116811461233557600080fd5b60008060408385031215613c0b57600080fd5b8235613c1681613be3565b9150613c258460208501613b69565b90509250929050565b600060208284031215613c4057600080fd5b6106398383613b69565b600060208284031215613c5c57600080fd5b5035919050565b6000602082840312156115a757600080fd5b600080600080600060a08688031215613c8d57600080fd5b8535613c9881613be3565b9450613ca78760208801613c63565b9350613cb68760408801613c63565b9250613cc58760608801613c63565b949793965091946080013592915050565b60008060408385031215613ce957600080fd5b823591506020830135613cfb81613be3565b809150509250929050565b600060208284031215613d1857600080fd5b81356139a181613be3565b60008060408385031215613d3657600080fd5b8235613bd581613be3565b634e487b7160e01b600052602160045260246000fd5b60058110613d6757613d67613d41565b9052565b6001600160a01b038a811682528981166020830152610120820190613d93604084018b613d57565b606083019890985295516080820152935160a0850152915160c084015290931660e08201529151610100909201919091529392505050565b60005b83811015613de6578181015183820152602001613dce565b838111156129c95750506000910152565b60008151808452613e0f816020860160208601613dcb565b601f01601f19169290920160200192915050565b6020815260006106396020830184613df7565b60008060408385031215613e4957600080fd5b613c168484613b69565b6020810160038310613e6757613e67613d41565b91905290565b602080825282518282018190526000919060409081850190868401855b82811015613f1a57815180516001600160a01b03908116865287820151168786015285810151613ebc87870182613d57565b5060608181015190860152608080820151519086015260a080820151519086015260c080820151519086015260e0808201516001600160a01b0316908601526101009081015151908501526101209093019290850190600101613e8a565b5091979650505050505050565b93845260208401929092526040830152606082015260800190565b600060208284031215613f5457600080fd5b5051919050565b634e487b7160e01b600052603260045260246000fd5b600060208284031215613f8357600080fd5b815160ff811681146139a157600080fd5b6020808252601e908201527f42656c6f77206d696e696d756d2073706f6e736f7220706f736974696f6e0000604082015260600190565b600181811c90821680613fdf57607f821691505b602082108114156115a757634e487b7160e01b600052602260045260246000fd5b60208082526012908201527114195b991a5b99c81dda5d1a191c985dd85b60721b604082015260600190565b6001600160a01b03929092168252602082015260400190565b60006020828403121561405757600080fd5b815180151581146139a157600080fd5b634e487b7160e01b600052601160045260246000fd5b6000821982111561409057614090614067565b500190565b60008160001904831182151516156140af576140af614067565b500290565b6000602082840312156140c657600080fd5b604051602081018181106001600160401b03821117156140f657634e487b7160e01b600052604160045260246000fd5b6040529151825250919050565b60008261412057634e487b7160e01b600052601260045260246000fd5b500490565b60006020828403121561413757600080fd5b81516139a181613be3565b8054600090600181811c908083168061415c57607f831692505b602080841082141561417e57634e487b7160e01b600052602260045260246000fd5b8388526020880182801561419957600181146141aa576141d5565b60ff198716825282820197506141d5565b60008981526020902060005b878110156141cf578154848201529086019084016141b6565b83019850505b5050505050505092915050565b85815284602082015260a06040820152600061420160a0830186614142565b6001600160a01b0394909416606083015250608001529392505050565b60018060a01b038516815283602082015282604082015260806060820152600061424b6080830184614142565b9695505050505050565b8381528260208201526060604082015260006142746060830184614142565b95945050505050565b60008282101561428f5761428f614067565b500390565b600082516142a6818460208701613dcb565b919091019291505056fecad20625296d189a6fc6e5b39d0d544e5bd99dbda0c8f2f0ecffef3e0fbcc282a26469706673582212201377ad3f21d803a08b53037506e2645f7a15d8d49b9bb1efb2b63895f80400c564736f6c63430008090033",
    "linkReferences": {},
    "deployedLinkReferences": {}
}